:020000040800F2
:10000000284100206D0200087138000811330008F3
:100010006D38000859070008394200080000000048
:100020000000000000000000000000006939000826
:100030005D07000800000000753800086D390008F1
:1000400089020008890200088902000800000000F7
:1000500089020008890200088902000800000000E7
:1000600089020008890200080000000061070008FA
:100070008902000889020008890200088902000834
:100080008902000889020008890200088902000824
:100090008902000889020008890200088902000814
:1000A0008902000889020008890200088902000804
:1000B00089020008890200088902000889020008F4
:1000C00089020008890200088902000889020008E4
:1000D0000000000089020008890200088902000867
:1000E00089020008890200088902000889020008C4
:1000F0008902000889020008890200080000000047
:100100000000000089020008890200088902000836
:100110008902000889020008890200088902000893
:100120008902000889020008890200088902000883
:100130008902000800000000000000008902000899
:10014000890200080000000000000000000000001C
:10015000000000000000000089020008000000000C
:100160000000000000000000890200088902000869
:10017000000000000000000000000000000000007F
:10018000000000000000000000000000000000006F
:10019000000000000000000000000000000000005F
:1001A0000000000000000000890200088902000829
:1001B00089020008890200088902000889020008F3
:1001C0008902000889020008000000000000000009
:1001D000000000000000000000000000890200088C
:1001E000890200080000000000000000000000007C
:1001F00000000000000000000000000000000000FF
:1002000000000000890200088902000800000000C8
:10021000000000008902000800000000000000004B
:10022000000000000000000000000000890200083B
:10023000890200080000000000000000000000002B
:10024000000000000000000000000000890200081B
:100250008902000889020008DFF80CD000F06AFA71
:1002600000480047315600082841002007488047D1
:1002700007480047FEE7FEE7FEE7FEE7FEE7FEE78A
:10028000FEE7FEE7FEE7FEE7FEE70000393A00087A
:10029000590200082DE9F05F0546002092469B4672
:1002A00088460646814640241BE02846414647468C
:1002B000224600F089F953465A46C01A914110D39C
:1002C00011461846224600F070F92D1A67EB010816
:1002D0004F4622460120002100F067F917EB000984
:1002E0004E41201EA4F10104DFDC484631462A4677
:1002F0004346BDE8F09FD2B201E000F8012B491E51
:10030000FBD270470022F6E710B513460A460446B2
:100310001946FFF7F0FF204610BD2DE9FE4F80463D
:1003200081EA0300C00F0C46009021F0004123F049
:100330000045B8EB0200A94105D24046214690464F
:100340001C460B46024623F00040104347D0270DC1
:10035000C7F30A00C3F30A510290401A01904028E3
:100360006BDAC3F3130040F4801B0098924620B16F
:100370000023D2EB030A63EB0B0B01985946C0F143
:100380004002504600F011F906460D4650465946C7
:10039000019A00F029F910EB08006141002487EA76
:1003A000115284EAE7731A4340D0009A62B3019A6B
:1003B000012A4FEA075215DC001B61EB02014FF0E6
:1003C000004202EA0752CDE90042001C41F58011CB
:1003D00032462B4600F060F903B0BDE8F08F40468E
:1003E0002146F9E7001B61EB0201001C41F5801377
:1003F00000185B412018A2F5001747EB030140EA03
:10040000D570B6196D4111E06D084FEA360645EA20
:10041000C0754FEA0752001B61EB0201001C41F559
:10042000801149084FEA30000019514132462B46ED
:1004300003B0BDE8F04F00F020B900980122400061
:100440000023D0EB020263EBE073009821464FEAF1
:10045000E074B8EB000061EB0401E9E783F00043CE
:100460005BE781F0004158E72DE9FE4F81EA030484
:1004700004F0004421F0004100944FF0000B23F001
:10048000004350EA01045ED052EA03045BD0C3F398
:100490000A54C1F30A552C44A4F2F3340194A0FB8E
:1004A0000254C1F3130141F48011C3F3130343F465
:1004B000801301FB024400FB034E840A970A44EABE
:1004C000815447EA8357A4FB076802958D0A05FB10
:1004D00007854FEA932C04FB0C542705029D4FEA35
:1004E000065847EA1637B5EB08056EEB070C870E82
:1004F000920E47EA811742EA8312A7FB0201B6EB8C
:100500000B0164EB00042B0D43EA0C335E1844EB43
:100510001C50DA465146E7FB0201C5F313044FEACB
:100520000B3343EA14534FEA0432019C43EA0603B7
:10053000A4F10C040294009CCDE900B400F0ACF8E6
:1005400003B0BDE8F08F00200146F9E700F000425B
:1005500030F000400AD0C10D01F56071C0F3160003
:1005600042EA0151C208400711437047002001468A
:10057000704701F0004330B421F0004150EA01021D
:1005800006D00A0DA2F56072C1F31301002A02DC45
:1005900030BC00207047440F44EAC104C100E01899
:1005A00030BC00EBC25000F031B8202A04DB203A06
:1005B00000FA02F1002070479140C2F1200320FAB6
:1005C00003F3194390407047202A04DB203A21FAB4
:1005D00002F00021704721FA02F3D040C2F120025C
:1005E0009140084319467047202A06DBCB17203A72
:1005F00041FA02F043EAE07306E041FA02F3D04028
:10060000C2F1200291400843194670470029A8BF53
:100610007047401C490008BF20F00100704710B42B
:10062000B0FA80FC00FA0CF050EA010404BF10BCE0
:10063000704749B1CCF1200421FA04F411FA0CF10D
:1006400018BF012121430843A3EB0C01CB1D4FEA46
:1006500000614FEA102042BF002010BC704700EB41
:10066000C35010440029A4BF10BC7047401C49006F
:1006700008BF20F0010010BC704710B5141E73F1C4
:10068000000408DA401C41F1000192185B411A4352
:1006900001D120F0010010BD2DE9F04D92469B469E
:1006A00011B1B1FA81F202E0B0FA80F22032904644
:1006B000FFF77BFF04460F4640EA0A0041EA0B01C0
:1006C00053465A46084313D0114653EA010019D045
:1006D000C8F140025046FFF777FF05460E465046E8
:1006E00059464246FFF761FF084305D0012004E068
:1006F00020463946BDE8F08D0020054346EAE07605
:100700002C4337430A986305E40AA0EB0800002253
:10071000FD0A44EA47540A3002D500200146E9E7C1
:10072000010510196941DDE9084500196941BDE875
:10073000F04DA2E7064C074D06E0E06840F00103EB
:1007400094E8070098471034AC42F6D3FFF788FDD1
:100750003464000854640008FEE70000704700009D
:10076000012000F01BB8000072B600BFFEE70000D9
:10077000B0B5044600F002F9054640F20800C2F2A6
:1007800000000078611C18BF044400BF00F0F6F8B8
:10079000401BA042FAD3B0BD70470000B0B542F292
:1007A0000C05C4F2024529680446014203D02046E4
:1007B0002C6000F00BF86868204208BFB0BD2046EE
:1007C0006C60BDE8B040FFF7E7BF0000012818BF2C
:1007D000704740F21800C2F200000121017070471A
:1007E0002DE9F04F81B00B68002B00F0BD8047F67B
:1007F0007F72C0F22F0202EA90224FF0000B002617
:100800000027012400920BE00B68083733FA04F547
:1008100004F1010406F102060BF1040B00F0A480C0
:10082000A4F10108012202FA08FC13EA0C02EBD041
:10083000D1F804E04EF01003122B18D16FF003032F
:1008400003EA58030BF01C0500EB030ADAF820E07A
:100850000F23D1F81090AB402EEA030E09F00F03DE
:10086000AB4043EA0E03CAF82030D1F804E0036835
:100870000325B5400EF003096FEA050AAB4309FAF8
:1008800006F52B43BEF1120F036065D8012303FA6E
:100890000EF313F0061F5FD08368CD6803EA0A03E6
:1008A000B5402B43836043684FEA1E1523EA0C03CF
:1008B00005FA08F52B434360C3688D6803EA0A0311
:1008C000B5402B43C3605FEACE039DD528F00303F8
:1008D00042F20008C4F2024808EB030EDEF860C0E2
:1008E00007F018050F23AB402CEA030C009B03FA1A
:1008F00005F54CEA0503CEF86030D8F800C0D1F811
:1009000004E04CEA02055FEACE2358BF2CEA020558
:10091000C8F80050D8F804C05FEA8E234CEA0205FC
:1009200058BF2CEA0205C8F80450D8F884C05FEA22
:100930008E334CEA020558BF2CEA0205C8F88450F1
:10094000D8F880C05FEACE334CEA020558BF2CEAE3
:100950000205C8F8805057E7B9F1030FACD18B6896
:10096000012BA9D1AFE700BF01B0BDE8F08F0000B7
:100970001823002A08BF2823C150704740F22010D6
:10098000C2F200000068704790F84120202A03D18D
:1009900090F84020012A01D102207047242280F8DB
:1009A00041200268136823F001031360136823F4E5
:1009B00080531360136819431160116841F00101FD
:1009C0001160202180F84110002180F84010084675
:1009D0007047000090F84120202A03D190F8402071
:1009E000012A01D102207047242280F841200268A8
:1009F000136823F001031360136823F4706343EA60
:100A000001211160116841F001011160202180F87D
:100A10004110002180F8401008467047002804BFAC
:100A20000120704710B5044690F8410028B9002015
:100A300084F84000204600F083FA242084F8410026
:100A400094E80910E2680168012A21F001010160BF
:100A500023F070610161816821F40041816003D15C
:100A60004CF40041816009E04CF40441022A8160A9
:100A700004D1416841F4006103E000BF416821F402
:100A800000614160416804F1100341F0007141F4DC
:100A900000414160C16821F40041C1600ECB1143A7
:100AA00041EA0321E269C160216A114301600168E2
:100AB00041F00101016000202021606484F84110B0
:100AC000206384F8420010BD2DE9F04F81B0044648
:100AD00090F8410020280DD1DDF828A0BAF1000FD0
:100AE0000CD0DDF82CB0BBF1000F07D094F840001B
:100AF00001280BD1022001B0BDE8F08F4FF4007047
:100B00006064012001B0BDE8F08F00BF01201D46E8
:100B10001746894684F84000FFF730FF21680646F3
:100B20008A69120447D422200C9A84F8410040209C
:100B30004FF0000884F84200C4F84480C4F824A0B0
:100B4000A4F82AB0C4F8348093466FF39F29E8B222
:100B50004A6849F6000ACFF6004A49EA004002EA2C
:100B60000A02104400F500504860204659463246BB
:100B700002F042FDA8B9012D08D02068390A81622F
:100B800020465946324602F037FD50B92068F9B286
:100B900081622046402100225B46009602F06AFCFA
:100BA00050B384F84080012001B0BDE8F08F00BF51
:100BB00088690004B7D520461921324602F0AAFB05
:100BC00000289ED1FFF7DAFE801B21681A28EFD398
:100BD00088690004ECD5606C40F02000606420203F
:100BE00084F84100002084F8420084F8400001208D
:100BF00001B0BDE8F08F00BF608D5F4640F2000B92
:100C0000B0F5807FC0F2FF1B0AD320680BF51053AC
:100C100050F8041F4D4601EA0A02FF210BE000BF15
:100C2000618D2068CAB250F8043F49EA024203EAE3
:100C30000A050BF592332A431A434FF0FF080AF5D1
:100C40008065026021850FE0618D2068218550F864
:100C5000042FC9B249EA01412A404FF00073114301
:100C600019430160608D98B32046042100223B4661
:100C7000009602F0FFFB00287FF443AF2068616A12
:100C8000406A0870606A218D01306062481E2085CC
:100C9000618D01396185618D0029E3D00004E1D1C6
:100CA0002046802100223B46009602F0E3FB00280C
:100CB0007FF427AF608DB0F5807FC5D32068A4F89E
:100CC000288050F8041F4A4629405B46C7E700BF0A
:100CD00020463946324602F04FFC00287FF411AF1F
:100CE00020682021C16142684EF60003CFF6006300
:100CF0001A404260002084F8411084F8420084F8D1
:100D0000400001B0BDE8F08F2DE9F04F81B00446FE
:100D100090F8410020280DD1DDF828A0BAF1000F8D
:100D20000CD0DDF82CB0BBF1000F07D094F84000D8
:100D300001280BD1022001B0BDE8F08F4FF4007004
:100D40006064012001B0BDE8F08F00BF01201D46A6
:100D50001746894684F84000FFF710FE21680646D2
:100D60008A69120449D421200C9A84F84100402059
:100D70004FF0000884F84200C4F84480C4F824A06E
:100D8000A4F82AB0C4F8348049F6004A93466FF3B9
:100D90009F29E8B2CFF6004A4A6849EA0040AAF51E
:100DA00080631A40104440F0807040F40050486066
:100DB00020465946324602F01FFCA8B9012D08D042
:100DC0002068390A816220465946324602F014FCF6
:100DD00050B92068F9B281622046802100225B462A
:100DE000009602F047FB48B384F84080012001B030
:100DF000BDE8F08F88690004B5D520461921324638
:100E000002F088FA00289CD1FFF7B8FD801B21680A
:100E10001A28EFD388690004ECD5606C40F02000FC
:100E20006064202084F84100002084F8420084F8A7
:100E30004000012001B0BDE8F08F00BF608D40F29E
:100E40000008B0F5807FC0F2FF1809D320684B4638
:100E500050F8041F454601EA0A02FF210BE000BFDB
:100E6000618D2068CAB250F8043F49EA024203EAA1
:100E70000A034FF000751A432A43FF2702602185B9
:100E800011E000BF618D2068218550F8042FC9B2A0
:100E900049EA014102EA0A024FF000731143194383
:100EA0000160608D80B320465946324602F0A4FBB3
:100EB00000287FF446AF606A226810F8011B916237
:100EC0006062608D01386085208D01382085618DDC
:100ED0000029E6D00004E4D12046802100225B46B0
:100EE000009602F0C7FA00287FF42BAF608DB0F5B2
:100EF000807FC7D32068278550F8041F4A4601EA3F
:100F00000A014346CAE700BF20465946324602F06E
:100F100033FB00287FF415AF20682021C1614268AF
:100F20004EF60003CFF600631A404260002084F8BA
:100F3000411084F8420084F8400001B0BDE8F08F11
:100F4000B0B5AAB0044602A808308021FFF7DAF94C
:100F5000206845F20041C4F20001884202D02AB064
:100F6000B0BD00BF4FF400500024029002A80394CB
:100F700000F092FE002818BFFFF7F6FB40F68C4504
:100F8000C4F20245286825A940F0020028602868BC
:100F900000F0020025902598C02025901220CDE970
:100FA00026040420299040F20040C4F20220289434
:100FB000FFF716FC286940F400102861286900F446
:100FC0000010019001982AB0B0BD000040F200412D
:100FD000C4F203010A68D2071CBF012070470A68E7
:100FE00022F00402104308600020704740F20041E4
:100FF000C4F20301086840F0010200200A60704753
:1010000040F2080040F22011C2F20000C2F20001DA
:1010100000780A68104408607047000080B503201B
:1010200000F0B6F801F056FB40F62041C4F2024150
:10103000096846F2F23201F00F01C0F60002515C7D
:10104000C84040F21001C2F200010860042001F023
:10105000FDFE0F2000F008F800281CBF012080BD15
:1010600000F058F8002080BD70B540F20806C2F2CA
:1010700000063178E1B304464EF21000CEF20000D3
:101080000068400710D401F03BFF02281CD0012863
:1010900022D078BB40F21000C2F200000068317824
:1010A0004FF4FA5207E000BF40F21000C2F2000015
:1010B00000684FF47A72B2FBF1F1B0FBF1F001F08D
:1010C0000DFFA8B91BE000BF30784FF47A71B1FB77
:1010D000F0F04FF4004106E030784FF47A71B1FB44
:1010E000F0F04FF4FA41B1FBF0F001F0F7FE30B14F
:1010F000012070BD002001F0F1FE0028F8D14FF072
:10110000FF3021460022002500F016F828467460C2
:1011100070BD000070470000002848BF704700F015
:101120001F01012202FA01F14EF200124009CEF233
:10113000000242F82010704710B54EF60C5CCEF25B
:10114000000CDCF80030C3F3022E8EF00704042CF0
:1011500028BF0424BEF103034FF0FF3E38BF002335
:101160000EFA04F4A14399400EFA03F39A43114393
:1011700000F00F02043A624409010C3200F16043AE
:10118000B0F1FF3FC8BF03F56442117010BD00000D
:101190004EF60C51CEF200010A684FF6FF031A40DA
:1011A00060F30A2242F0806040F0FD7008607047F2
:1011B00010B540F6284CC4F2024CDCF80CE0DCF828
:1011C0000010DCF80020C2F30523DCF80020DCF876
:1011D0001040DBB3C2F30012C4F3CC0401F00301EE
:1011E00004FB02F2032900EE102A6FF35F2EB8EE23
:1011F000400A31D0022935D001295CF8281C49F277
:101200000002C1F3C101C0F2D03222FA01F101EEB5
:10121000101A02EE103AB8EE411AB8EE422A9FEDCB
:101220004F3A81EE021A02EE10EA20EE030AB8EEFF
:10123000422A30EE020AB7EE002A30EE022A5CF8AB
:10124000281C22EE010A89012CD527E00021C0E9E3
:101250000011816010BD00BF01EE103A9FED3E2AE3
:1012600004E000BF01EE103A9FED3D2AB8EE411AAE
:1012700082EE012A01EE10EA9FED383AB8EE411AEB
:1012800020EE030A30EE010AB7EE001A30EE011A22
:101290005CF8281C22EE010A890103D5DCF8001055
:1012A000C90307D4002101605CF8281C890118D407
:1012B0001BE000BFDCF80C10B7EE002AC1F346219A
:1012C00001EE101AB8EE411A31EE021A80EE011A40
:1012D000BCEEC11A11EE101A01605CF8281C8901DD
:1012E00003D5DCF80010890302D4002112E000BF0E
:1012F000DCF80C10B7EE002AC1F3064101EE101A1B
:10130000B8EE411A31EE021A80EE011ABCEEC11A93
:1013100011EE101A41605CF8281C890144BFDCF80A
:1013200000105FEA413103D40021816010BD00BF8D
:10133000DCF80C10B7EE002AC1F3066101EE101ABA
:10134000B8EE411A31EE021A80EE010ABCEEC00A74
:1013500010EE101A816010BD20BCBE4B0000003999
:101360000024744A10B540F62C4CC4F2024CDCF850
:1013700010E0DCF80010DCF80020C2F30523DCF8F4
:101380000020DCF81440DBB3C2F30012C4F3CC0439
:1013900001F0030104FB02F2032900EE102A6FF3AF
:1013A0005F2EB8EE400A31D0022935D001295CF811
:1013B0002C1C49F20002C1F3C101C0F2D03222FA62
:1013C00001F101EE101A02EE103AB8EE411AB8EE31
:1013D000422A9FED4F3A81EE021A02EE10EA20EE09
:1013E000030AB8EE422A30EE020AB7EE002A30EEC7
:1013F000022A5CF82C1C22EE010A09012CD527E0F8
:101400000021C0E90011816010BD00BF01EE103A5B
:101410009FED3E2A04E000BF01EE103A9FED3D2A09
:10142000B8EE411A82EE012A01EE10EA9FED383A39
:10143000B8EE411A20EE030A30EE010AB7EE001AA8
:1014400030EE011A5CF82C1C22EE010A090103D5CA
:10145000DCF80010C90307D4002101605CF82C1CE3
:10146000090118D41BE000BFDCF81010B7EE002A09
:10147000C1F3462101EE101AB8EE411A31EE021AFC
:1014800080EE011ABCEEC11A11EE101A01605CF870
:101490002C1C090103D5DCF80010890302D40021BB
:1014A00012E000BFDCF81010B7EE002AC1F30641CD
:1014B00001EE101AB8EE411A31EE021A80EE011A4E
:1014C000BCEEC11A11EE101A41605CF82C1C090127
:1014D00044BFDCF800105FEA413103D40021816091
:1014E00010BD00BFDCF81010B7EE002AC1F3066192
:1014F00001EE101AB8EE411A31EE021A80EE010A1E
:10150000BCEEC00A10EE101A816010BD20BCBE4BAC
:10151000000000390024744A80B584B04FF6FF7390
:101520000246C0F21F0300209B1A70EB010347DA4A
:101530006FF060439B1A70EB0103C0F287806FF07D
:101540007C439B1A4FF000038B4180F2DD8082F0D8
:1015500080630B4300F08E8182F000630B4300F048
:101560009F8182F08052114340F0AC8240F60041EE
:10157000C4F20241D1F8E000C0F3C202042A00F232
:10158000C98248F20000C0F2BB00DFE812F0D202CC
:101590009502C3029B020500D1F8E8200B68086899
:1015A0009B0702F0404202D5002A00F04F838005DD
:1015B00040F12883B2F1804F00F03B8322E300BF6B
:1015C00041F6FF739B1A70EB01036BDA4FF6FF7362
:1015D0009B1A4FF000038B4180F2D88082F4803355
:1015E0000B4300F0878182F400330B4300F09E81AF
:1015F00082F48022114340F0658240F60041C4F23B
:101600000241D1F8DC00C0F302320020052A00F2CA
:101610005982DFE812F07302510257029B02A302C3
:10162000070000BFD1F8E8200B6808689B0702F0AC
:10163000404202D5002A00F00983800540F1E28291
:10164000B2F1804F00F0F582DCE200BF0F2940F3D9
:10165000C58081F01003134300F0828181F4007390
:10166000134300F09D8181F48051114340F02A82A0
:1016700040F60041C4F20241D1F8E40000F04062BB
:10168000B2F1806F00F0FE81002A00F063810868EB
:1016900080074FF0000040F11582B2F1006F00F0BA
:1016A00042810FE2D2F103034FF000038B41C0F2FD
:1016B000B58082F001030B4300F0928182F00202B8
:1016C000114340F0FF8140F60040C4F20240D0F8E0
:1016D000D81011F0380100F011820268120102D511
:1016E000082900F01B82036802689B0702D51829AD
:1016F00000F00082920502D5202900F09A82D0F8ED
:10170000F0002839B0E200BF82F400130B4300F070
:10171000878182F00072114340F0D48140F600418D
:10172000C4F20241D1F8F000D1F8F020920700F4A1
:10173000407206D5B2F5807F02BF4FF4004004B07E
:1017400080BDD1F8F000000106D5B2F5007F02BFE0
:101750004FF4FA4004B080BD086880034FF00000E9
:1017600040F1B081B2F5407F40F0AC81C86910F41F
:10177000785F00F0CF81C86947F64001C0F30520CB
:10178000C0F27D11B1FBF0F004B080BD82F40053D3
:101790000B4300F05B8182F48042114340F0928160
:1017A00040F60040C4F20240D0F8E41001F44021B9
:1017B000B1F5802F00F06681002900F09F8102685A
:1017C0000068920703D5B1F5002F00F03F8200F4C6
:1017D00000720020B1F5402F54E200BF82F00053A8
:1017E0000B4300F0558181F00401114340F06A8100
:1017F00040F60040C4F20240D0F8E81000688003D0
:1018000001F4407040F18081002840F07D8147F66E
:101810004000C0F27D1004B080BD00BF82F0040320
:101820000B4300F0518182F48052114340F04A8111
:1018300040F60040C4F20240D0F8E01001F0E06150
:10184000B1F1807F00F06A81002900F08380036895
:1018500002689B0703D5B1F1407F00F04B819205F0
:1018600003D5B1F1806F00F0E481D0F8F00001F110
:101870007B41F9E140F60040C4F20240D0F8E810A4
:10188000026801F03001920440F14E81002940F0DD
:101890004B8146F60040C0F2DC2004B080BD00BFA2
:1018A00040F60041C4F20241D1F8E00000F0070226
:1018B000042A00F22F8148F20000C0F2BB00DFE8EA
:1018C00012F03801FB00290101010500D1F8E820E0
:1018D0000B6808689B0702F0404202D5002A00F01E
:1018E000B581800540F18E81B2F1804F00F0A18179
:1018F00088E100BF40F60041C4F20241D1F8E400A3
:1019000000F04072B2F1807F00F0BC80002A00F04D
:10191000F580086880074FF0000040F1D380B2F1F5
:10192000007F40F0CF80086890E100BF40F60041A2
:10193000C4F20241D1F8DC00C0F302220020052AE3
:1019400000F2C080DFE812F00600B800BE0002011D
:101950000A01500104B0BDE8804000F097BE00BF0E
:1019600040F60040C4F20240D0F8E41001F030012B
:10197000102900F0DE800268120102D5202900F053
:10198000CD800068302900F400524FF0000004BF01
:1019900046F60040C0F2DC20002A08BF104691E065
:1019A00040F60041C4F20241D1F8E800D1F8F0203D
:1019B00000F00800920705D5002802BF4FF4004050
:1019C00004B080BDD1F8F010002818BF4FF4FA40E1
:1019D00001F00061002908BF084604B080BD00BFC7
:1019E00040F60040C4F20240D0F8D81011F00701D0
:1019F00000F0A6800268120102D5012900F08E8055
:101A0000036802689B0701D5032973D0920502D5AC
:101A1000042900F00E81D0F8F000053924E100BF60
:101A200040F60040C4F20240D0F8E81001F007018F
:101A3000022927D0012900F09B80002940F09E80D8
:101A400004B0BDE8804000F0C1BD00BF40F60040DA
:101A5000C4F20240D0F8E41001F44031B1F5803F07
:101A600010D000294AD002680068920703D5B1F56A
:101A7000003F00F0EB8000F400720020B1F5403F21
:101A800000E100BF01A8FFF76DFC039804B080BD22
:101A900040F60041C4F20241D1F8E000C0F38212E6
:101AA000042A37D848F20000C0F2BB00DFE802F099
:101AB0004104320A8C0000BF01A8FFF753FC0198D3
:101AC00004B080BD04B080BD40F60040C4F20240C6
:101AD000D0F8D81011F4E07110D00268120101D5CD
:101AE00040291BD0036802689B0740F19D80C029F4
:101AF00040F09A80C2F3C100AAE000BF04B0BDE884
:101B0000804000F07BBD00BFB0F5007F06D0B0F58F
:101B1000807F0ED0002004B080BD00BF01A8FFF779
:101B200021FC029804B080BD0268920132D51029D0
:101B300030D101A8FFF73CFB029804B080BD00BF84
:101B400004B0BDE8804000F07DBD00BFD1F8F000DA
:101B50004FF4004101EA803004B080BDD1F8F000BC
:101B60004FF4FA41000101EAE07004B080BD00BF0B
:101B700004B0BDE8804000F0ADBD00BF0268920334
:101B80005ED503295CD147F64000C0F27D1004B059
:101B900080BD00BFD0F8F020920705D5202902BFF4
:101BA0004FF4004004B080BDD0F8F000302900F0C0
:101BB00000624FF0000008BF4FF4FA40002A08BF4F
:101BC000104604B080BD00BFD1F8E8200B6808685B
:101BD0009B0702F0404200D5C2B3800512D5B2F196
:101BE000804F26D00EE000BFD1F8E8200B680868CF
:101BF0009B0702F0404200D542B3800502D5B2F106
:101C0000804F16D00868B2F1004F00F400314FF059
:101C1000000004BF47F64000C0F27D10002908BF55
:101C2000084604B080BD00BF920519D5B1F5807F8C
:101C300016D140F60010C0F23D0004B080BD00BFD8
:101C400002680068920719D5042917D1C0F3C100B2
:101C500049F20001C0F2D03121FA00F004B080BD99
:101C6000D0F8F000A1F5A07110F00200B1FA81F1F6
:101C70004FEA511118BFC80304B080BD00F40072D0
:101C80000020052904BF40F60010C0F23D00002AE4
:101C900008BF104604B080BD2DE9F0470446006837
:101CA00040F62848C101C4F2024807D5D8F8C01050
:101CB000226B21F040411143C8F8C010C00714D076
:101CC000606BC11E032909D340B1012814D104F16E
:101CD000080001F0D1FD064640B9606BD8F8B0109D
:101CE00021F007010843C8F8B000002620788007DB
:101CF00006D4354622E000BF012620788007F8D5BB
:101D0000A06B6FF0020101EBF001354603290AD305
:101D10004FEAF000354630B1012831D104F1080016
:101D200001F0AAFD05462F464DB9D8F8B000A16BC9
:101D300020F0380008430025C8F8B0003746207866
:101D4000400722D5E06B6FF0020101EBB0110329CF
:101D500009D34FEAB01030B1012837D104F108009F
:101D600001F08AFD05462E4685B9D8F8B000E16B32
:101D700020F4E07008430025C8F8B00005E000BF7B
:101D80000125012720784007DCD43E466078C00654
:101D900021D5206C6FF0020101EB3061032909D3DA
:101DA0004FEA306030B101283CD104F1080001F065
:101DB00063FD05462F467DB9D8F8B800216C20F0A8
:101DC000E06008430025C8F8B80004E001250126BA
:101DD0006078C006DDD437466078800627D5606C11
:101DE0006FF0010101EB3041022909D34FEA304085
:101DF00030B1012810D104F1080001F03DFD054685
:101E00002E465DB9D8F8BC00616C20F44030084320
:101E10000025C8F8BC000AE00125012660784006CC
:101E200009D424E00125012760788006D7D43E46F6
:101E3000607840061BD5A06C6FF0010101EBB0414A
:101E4000022909D34FEAB04030B1012832D104F160
:101E5000080001F011FD05462F464DB9D8F8BC0029
:101E6000A16C20F4402008430025C8F8BC00374688
:101E7000A078C00723D0E06C002818BFB0F1007F25
:101E80000CD12E46E5B9D8F8BC00E16C20F04070CA
:101E900008430025C8F8BC0011E000BFB0F1807F06
:101EA00030D104F1080001F0E7FC05462E463DB9AB
:101EB000E9E700BF01250127A078C007DBD13E4636
:101EC0006079C00623D5206D002818BFB0F1006FDF
:101ED0000CD12F46E5B9D8F8BC00216D20F0406048
:101EE00008430025C8F8BC0011E000BFB0F1806FC6
:101EF00062D104F1080001F0BFFC05462F463DB950
:101F0000E9E700BF012501266079C006DBD437462A
:101F1000D4E9000140F61C4AC4F2024A09050CD576
:101F2000DAF8001021F40041CAF80010D4F880104B
:101F3000DAF800201143CAF8001080031BD5606D49
:101F40006FF0020101EB3021032909D34FEA302061
:101F500030B1012834D104F1080001F08DFC0546B0
:101F60002E464DB9D8F8B400616D20F4E060084306
:101F70000025C8F8B4003E46A078400725D5A06DDE
:101F80006FF0020101EB3031032909D34FEA303001
:101F900030B101282AD104F1080001F06DFC05469A
:101FA0002F469DB9D8F8B400A16D20F4E040084355
:101FB0000025C8F8B40008E001250127A8E700BF04
:101FC00001250126A0784007D9D43746A07880069D
:101FD0002BD5606E05280FD8022815D02946DDB113
:101FE000D4E90002920525D433E000BF0125012782
:101FF000A0788006EDD418E001250121D4E9000283
:10200000920517D425E000BF04F1080001F034FC6C
:102010000546002D2946E3D1D8F8C000616E20F0B6
:10202000070008430025C8F8C0003946D4E900027B
:1020300092050ED5A26E42F00803082B0ED1A946D8
:1020400045B9D8F8C030002523F008031A43C8F872
:10205000C0208946800106D4484621E001254FF082
:1020600001098001F8D54FF60847CFF6FF775AF8F7
:10207000070040F001004AF80700FEF77FFC064623
:102080005AF80700C00707D1FEF778FC801B02282A
:10209000F6D90325032003E0002D284600F00E8129
:1020A00021684A011BD5226E6FF0010303EB321346
:1020B000022B0AD34FEA32133BB1012B2ED1D8F8B1
:1020C000003043F40033C8F800302F4645B9D8F843
:1020D000C030002523F030031A43C8F8C02007465B
:1020E00008011FD5E06EC11E02290BD3012800F0A4
:1020F000BB80002840F0C280D8F8000040F40030D7
:10210000C8F800002E4675B9D8F8B800E16E20F086
:10211000070008430025C8F8B80003E0012501279F
:102120000801DFD43E46E078C0061FD5206F6FF06F
:10213000020101EBF00102290DD34FEAF000012862
:1021400000F0A080002840F0A780D8F8000040F4FC
:102150000030C8F800002F464DB9D8F8B800216FFC
:1021600020F0380008430025C8F8B8003746E0786A
:1021700080061FD5606F6FF0020101EBB0110229DC
:102180000DD34FEAB010012800F08A80002840F0FB
:102190009180D8F8000040F40030C8F800002E46C6
:1021A0004DB9D8F8B800616F20F4E07008430025FD
:1021B000C8F8B8003E462079400721D5E06D58B1F7
:1021C000B0F5007F0CD0B0F5807F49D1D8F8000081
:1021D00040F40030C8F800002F4695B907E000BF72
:1021E00004F1080001F048FB05462F464DB9D8F828
:1021F000C000E16D20F4407008430025C8F8C0001D
:1022000037462079C0065CBF3846BDE8F087E06FEE
:1022100030280CD020280FD010281CBF0120BDE88A
:10222000F087D8F8000040F40030C8F8000055B13D
:102230002846BDE8F08700BF04F1080001F01CFB50
:102240000546002DF4D1D8F8BC00E16F20F0300035
:1022500008433D46C8F8BC002846BDE8F08700BFEB
:1022600001250127CDE700BF04F1080001F004FBC0
:102270000546002D2E467FF456AF45E70125012681
:1022800051E700BF04F1080001F0F6FA0546002D01
:102290002F467FF46CAF60E70125012767E700BF99
:1022A00004F1080001F0E8FA0546002D2E467FF4FF
:1022B00082AF76E7012501267DE700BFD8F8C80088
:1022C00010F4407016D0A16F884211D0D8F8C80021
:1022D000D8F8C81020F4407041F48031C8F8C81014
:1022E000D8F8C81021F48031C8F8C810C8F8C80060
:1022F000C00721D1A06FDAF800104FF6CF7300F4B9
:10230000407221F47C51C0F2FF0303EA1013B2F5CE
:10231000407F08BF1943CAF80010D8F8C8106FF3FF
:102320001F3021F44071C8F8C810D8F8C810002533
:102330000843C8F8C8008FE6FEF720FB064641F2C6
:1023400088370325D8F8C8008007D3D4FEF716FBDA
:10235000801BB8424FF00300F4D9A1E62DE9F04309
:1023600081B0002800F0CD8042F20008C4F20208DB
:102370000446D8F800000D4600F00F0088420DD248
:10238000D8F8000020F00F002843C8F80000D8F863
:10239000000000F00F00A84240F0B380206840F633
:1023A0002047C106C4F202470CD561693A68702320
:1023B00003EA1222914205D93A6822F4E04242EA45
:1023C0000121396001070CD521693A68702303EABD
:1023D0001212914205D93A6822F4E06242EA0111F0
:1023E000396041070AD5E1683A6802F0700291420B
:1023F00004D93A6822F070021143396081070AD586
:10240000A1683A6802F00F02914204D93A6822F0BA
:102410000F0211433960C00768D1206881070AD5CF
:10242000A1683A6802F00F02914204D23A6822F0A1
:102430000F0211433960D8F8001001F00F01A942D2
:102440000CD9D8F8001021F00F012943C8F800106A
:10245000D8F8001001F00F01A94252D141070AD566
:10246000E1683A6802F07002914204D23A6822F0C0
:1024700070021143396001070CD521693A68702355
:1024800003EA1212914205D23A6822F4E06242EA6B
:1024900001113960C0060CD560693968702202EA02
:1024A0001121884205D2396821F4E04141EA002037
:1024B000386000F00FF9396846F2F23201F00F018E
:1024C000C0F60002525C40F20C01C2F20001096841
:1024D00040F2100320FA02F2C2F2000308461A602A
:1024E00001B0BDE8F043FEF7BFBD00BF6068012842
:1024F0000CD002285ED0032862D157F8201C890135
:1025000008D4012001B0BDE8F08300BF57F8201CBB
:102510008905F6D557F8041C21F00301084347F854
:10252000040CFEF72BFA61680646032941F288394C
:102530002BD0022937D0012910D100BF57F8040C45
:1025400000F0180008283FF468AFFEF717FA801B68
:1025500048454FF00300F1D90DE000BF57F8040CD7
:1025600010F0180F3FF459AFFEF708FA801B4845EA
:102570004FF00300F2D901B0BDE8F083FEF7FEF999
:10258000801B48454FF00300F5D857F8040C00F0C5
:1025900018001828F2D140E7FEF7F0F9801B4845F3
:1025A0004FF00300E7D857F8040C00F0180010288B
:1025B000F2D132E757F8201C8903A2D5AAE700BF61
:1025C00057F8201C89079CD5A4E7000080B500F0CF
:1025D00081F840F62041C4F20241096846F2F23225
:1025E00001F00F01C0F60002515C01F01F01C8406C
:1025F00040F21001C2F20001086080BD80B500F019
:1026000069F840F62041C4F202410A6846F2F2330A
:1026100002F00F02C0F600039A5C02F01F02D040E5
:1026200040F21002C2F200021060096846F2024253
:10263000C1F30211C0F60002515C01F01F01C84055
:1026400080BD000080B500F045F840F62041C4F29E
:1026500002410A6846F2F23302F00F02C0F60003AC
:102660009A5C02F01F02D04040F21002C2F2000257
:102670001060096846F20242C1F30221C0F600026E
:10268000515C01F01F01C84080BD000080B500F022
:1026900021F840F62041C4F202410A6846F2F233C2
:1026A00002F00F02C0F600039A5C02F01F02D04055
:1026B00040F21002C2F200021060096846F20242C3
:1026C000C1F30231C0F60002515C01F01F01C840A5
:1026D00080BD000080B540F60041C4F20241C869E7
:1026E00000F01800082802BF40F60010C0F23D00BC
:1026F00080BDC86910F0180F34D0C86900F0180008
:10270000102802BF47F64000C0F27D1080BDC869A6
:1027100000F01800182849F20000C0F2D03066D14D
:10272000D1F828E08A6AC2F3052C8A6A8B6BBCF167
:10273000000F04BF002080BDC2F30012C3F3CC031E
:1027400003FB02F200EE102A0EF00302B8EE400A7C
:10275000032A15D0012A17D10A68920618D49FEDD2
:10276000251A1DE00868800649F20000C0F2D0304A
:1027700058BF80BD0968C1F3C101C84080BD00BF1A
:102780009FED1B1A0CE000BF9FED1B1A08E000BF75
:102790000A68C2F3C102D04001EE100AB8EE411A35
:1027A00002EE10CA486BB8EE422A6FF35F2081EE4A
:1027B000021A02EE100A9FED113AB8EE422A20EEFC
:1027C000030A486B30EE020AB7EE002AC0F3462037
:1027D00030EE020A013021EE000A01EE100AB8EED6
:1027E000411A80EE010ABCEEC00A10EE100A80BD4C
:1027F00020BCBE4B0024744C0024744A00000039F5
:102800002DE9F04381B0002800F0168140F6004722
:1028100040F6F0490446C4F20247C4F20249F8699E
:1028200059F8C81C227800F01808D00601F00306F9
:1028300029D5B8F1080F1BD0B8F1180F08BF022E28
:1028400016D0E1693868002900F0668140F4807094
:102850003860FEF793F80546386880050CD4FEF71B
:102860008DF8401B02284FF00300F5D95EE200BF4F
:10287000E069002800F0E080B869216A20F47C104B
:1028800040EA0140B8612078C00717D0B8F1100FB6
:1028900010D0B8F1180F08BF032E0BD06068B0F548
:1028A000A02F5FDA002800F0A181B0F5803F00F092
:1028B000C181C3E16068002800F0BE8020788007F5
:1028C00075D5B8F1000F21D0E068B8F1180F08BF36
:1028D000012E55D03968002800F06481206921F06C
:1028E000180108433860386840F001003860FEF78E
:1028F00045F805463868800752D4FEF73FF8401B7C
:1029000002284FF00300F5D910E200BFE06800286C
:1029100000F092803968206901F01801814231D0BD
:10292000396821F0180108433860FFF7D3FE396A8F
:1029300046F2F23201F00F01C0F60002515C40F2A3
:10294000100201F01F0120FA01F140F20C00C2F266
:1029500000000068C2F200021160FEF785FB00284B
:102960006AD10FE000F05E81B0F5A81F40F06681EB
:10297000386840F480203860386840F4801058E1AE
:10298000002859D0FDF7FAFF054600BF38688007D8
:1029900006D4FDF7F3FF401B0228F7D965E000BF1E
:1029A0003869616920F4FE0040EA0140386120780E
:1029B000000745D4207840075CD42078800600F1D9
:1029C0007D80A56AA5B3B8F1180F40F0C98059F809
:1029D000C81C59F8BC0C012D2ED0E26A01F003038B
:1029E000934229D1C1F30521226B914224D1626B1C
:1029F00001466FF35F21013A91421DD1A16BC0F3F3
:102A0000462201398A4217D1E16BC0F306420139EF
:102A10008A4211D1216CC0F30660013988420BD182
:102A200059F8B80CE16CC0F3CC00884240F0F28158
:102A3000002001B0BDE8F083012001B0BDE8F083C3
:102A4000A169D9F80000002950D040F08060C9F891
:102A50000000FDF793FF0546D9F800000001A9D456
:102A6000FDF78CFF401B0228F6D9032001B0BDE81A
:102A7000F08300BF4FF62446CFF6FF76B859C00763
:102A800012D1B85940F00100B851FDF777FF054663
:102A9000B859C00708D1FDF771FF401B02284FF05D
:102AA0000300F5D942E100BFA068042846DC0028F5
:102AB00000F0E080012800F00F8113E1616A3868BE
:102AC000002900F0818040F480503860FDF756FF07
:102AD000054600BF386880043FF573AFFDF74EFF31
:102AE000401B02284FF00300F4D91FE120F0806062
:102AF000C9F80000FDF742FF054600BFD9F8000005
:102B000000017FF557AFFDF739FF401B02284FF05A
:102B10000300F3D90AE100BF20F480703860FDF7AC
:102B20002DFF0546386880057FF5ADAEFDF726FF21
:102B3000401B02284FF00300F4D9F7E0052800F00D
:102B4000BF80852840F0CE80D9F8000040F0040016
:102B5000C9F80000D9F8000040F08000BAE000BFDA
:102B6000386820F080703860FDF708FF022D0546B8
:102B70000CD100BF3868800140F1DC80FDF7FEFE1B
:102B8000401B02284FF00300F4D9CFE038688001E1
:102B900040F13281FDF7F2FE401B02284FF00300A6
:102BA000F4D9C3E021F001003860FDF7E7FE0546E7
:102BB000386880077FF5FBAEFDF7E0FE401B02287A
:102BC0004FF00300F4D9B1E020F480503860FDF7F5
:102BD000D5FE0546386880047FF5F3AEFDF7CEFEDE
:102BE000401B02284FF00300F4D99FE0386820F41E
:102BF00080303860386820F480103860386820F4FD
:102C000080203860FDF7BAFE054600BF38688003B3
:102C10007FF554AEFDF7B2FE401B64284FF0030071
:102C2000F4D983E0386840F480203860386820F4B4
:102C300080103860386840F480300AE0386820F44A
:102C400080303860386820F480203860386820F49C
:102C500080103860FDF792FE054600BF386880039B
:102C60003FF52CAEFDF78AFE401B64284FF00300B1
:102C7000F4D95BE0D9F8000020F00100C9F80000A9
:102C8000D9F8000020F08000C9F80000D9F8000051
:102C900020F00400C9F80000FDF770FE054641F27F
:102CA000883600BFD9F8000080077FF586AEFDF7B3
:102CB00065FE401BB0424FF00300F3D936E000BF81
:102CC000D9F8000040F00400C9F80000D9F800006D
:102CD00020F08000C9F80000D9F8000040F00100A1
:102CE00010E000BFD9F8000020F00100C9F8000092
:102CF000D9F8000020F00400C9F80000D9F800005D
:102D000020F08000C9F80000FDF738FE054641F2CA
:102D1000883600BFD9F8000080073FF54EAEFDF7BA
:102D20002DFE401BB0424FF00300F3D901B0BDE8C7
:102D3000F08300BF59F8C80C43F6037104F12C036B
:102D400088430ECB084340EA0220A16B49F8C80C27
:102D50004FF47E4202EB4121E26B581E4FF4FE031A
:102D600089B203EB02426FF35F20084402F4FE01D4
:102D7000226C4FF0FE4303EB0262084402F0FE4176
:102D8000084449F8BC0C59F8C80C20F0100049F868
:102D9000C80CE06CC00049F8B80C59F8C80C40F0F9
:102DA000100049F8C80C59F8C80C616C20F00C00F0
:102DB000084349F8C80C59F8C80CA16C20F0200051
:102DC000084349F8C80C59F8C80C40F4803049F859
:102DD000C80C386840F080703860FDF7CFFD0446BD
:102DE000386880013FF524AEFDF7C8FD001B0228BE
:102DF0004FF00300F4D999E759F8C80C4FF6FC716D
:102E0000CFF6F871084049F8C80C002001B0BDE8C1
:102E1000F08300BF59F8C80C20F0100049F8C80C26
:102E2000FDF7ACFD0546FDF7A9FDA842FBD0E06C1F
:102E3000C00049F8B80C59F8C80C40F0100049F827
:102E4000C80C002001B0BDE8F0830000042888BF52
:102E50007047DFE800F00315273839004EF2100004
:102E6000CEF20000016821F00401016040F6E44068
:102E7000C4F20240016821F00C010160704700BFFC
:102E80004EF21000CEF200000168012221F0040190
:102E9000016040F6E440C4F20240016862F383013D
:102EA000016070474EF21000CEF20000016802226D
:102EB00021F00401016040F6E440C4F202400168E0
:102EC00062F38301016070474EF21000CEF2000001
:102ED000016841F00401016070470000411E0020BC
:102EE000B0EB116F1CBF012070474EF21002CEF202
:102EF000000251609060116841F003011160704759
:102F00004EF21000CEF200000068400744BF0420DB
:102F1000704740F6E440C4F20240006800F00C0143
:102F2000081FB0FA80F04009082908BF0220704746
:102F300090F88410012904BF022070472421C0F8B2
:102F4000881002681168136823F00103136021F0F0
:102F500000530021416613602022C0F8882080F8C9
:102F60008410084670470000B0B590F88420012A0C
:102F700004BF0220B0BD2422C0F888200268D0F827
:102F800064E0D2F800C01368BEF1000F23F0010323
:102F90001360936823F0606341EA0301916019D0E4
:102FA0009368916846F2224E490FC0F6000E46F231
:102FB0002A451EF80140C0F60005C3F34263695C70
:102FC000E400B4FBF1F11EF80340EB5CE500B5FB57
:102FD000F3F301E001210123A0F86A102021A0F8F9
:102FE0006830C2F800C0C0F88810002180F8841052
:102FF0000846B0BDB0B590F88420012A04BF022075
:10300000B0BD2422C0F888200268D0F864E0D2F86D
:1030100000C01368BEF1000F23F001031360936832
:1030200023F0604341EA0301916019D093689168ED
:1030300046F2224E490FC0F6000E46F22A451EF80F
:103040000140C0F60005C3F34263695CE400B4FBD1
:10305000F1F11EF80340EB5CE500B5FBF3F301E092
:1030600001210123A0F86A102021A0F86830C2F8DD
:1030700000C0C0F88810002180F884100846B0BD58
:1030800010B5E0B10446D0F8880028B9002084F8D3
:103090008400204600F028F82420C4F88800206826
:1030A000A16A0268002922F0010202601CBF2046CA
:1030B00000F016FD204600F03FFE012802D101205D
:1030C00010BD00BF2168486820F4904048608868BF
:1030D00020F02A008860086840F0010220460A605B
:1030E000BDE8104000F070BD10B5A8B004466846B9
:1030F00008308021FDF706F9206843F60001C4F28C
:103100000101884202D028B010BD00BF0120002478
:10311000009068460194FEF7BFFD002818BFFDF738
:1031200023FB40F68C40C4F20240816941F48041A7
:103130008161816901F4804123912399016841F003
:1031400001010160006823A900F001002390239889
:103150004FF4C06023900220CDE92404072027907B
:103160000020C4F202202694FDF73AFB28B010BDDF
:103170002DE9F0410446D0F8880020281CBF022029
:10318000BDE8F0810F4600294FF001001CBF164634
:10319000002A01D1BDE8F08120681D46816809063A
:1031A00003D5816821F0800181604FF00008212063
:1031B000C4F89080C4F88800FDF7E0FBA4F85460E0
:1031C000A4F85660A1680646B1F5805F05D1206974
:1031D000002814BF3846B8460746B4F85600D8B1A0
:1031E000681C1BD0002D71D121680AE017F8010B73
:1031F0008862B4F856000138A4F85600B4F85600B6
:1032000078B3C869000659D5002FEFD138F8020B02
:1032100000276FF35F20EBE7216822E0216802E0DE
:10322000C869000609D4C869000606D4C869000642
:103230005CBFC8695FEA0060F2D51FB117F8010BE7
:1032400005E000BF38F8020B00276FF35F208862AB
:10325000B4F856000138A4F85600B4F85600002817
:10326000E1D1C869400623D445B3681C10D100BF22
:10327000C869400616D4C869400613D4C869400618
:1032800010D4C86940064FF00000F1D511E000BF2E
:10329000FDF774FB801BA84212D820680168C06942
:1032A0004006F5D500202021C4F88810BDE8F08143
:1032B00000202021C4F88810BDE8F081FDF75EFBF6
:1032C00003202021C4F88810BDE8F081216800BFE8
:1032D000C869000608D4FDF751FB801BA842EFD84F
:1032E00021680868F4E700BF17B117F8010B04E084
:1032F00038F8020B00276FF35F208862B4F856009D
:103300000138A4F85600B4F856000028E0D1A8E728
:10331000FEE7000070B50446006815468369DA06CA
:1033200002D40021002266E00E461021C1618169AD
:1033300089065CD4711C50D036BBFDF71FFB20689A
:10334000426894F8421083691B040BD512F4804242
:1033500008D1202906D0416841F480414160FDF741
:103360000DFB054620688169890605D4FDF706FB3B
:10337000401B1A28F6D328E081698906DDD536E09E
:1033800020688169890632D4FDF7F8FA401BB04203
:10339000F6D92068426894F8421083691B040BD563
:1033A00012F4804208D1202906D0416841F48041BE
:1033B0004160FDF7E3FA0546206880698006DFD4A6
:1033C000FDF7DCFA401B1A28F6D320680122816938
:1033D000242110E08169890609D48169890606D40F
:1033E000816989065CBF81695FEA8161F2D520212C
:1033F000C161012204218369DE0505D54FF4807285
:1034000041F00101C26101225E0507D49B050CD485
:10341000002A04BF002070BD0CE000BF41F008018D
:103420004FF480629B05C26104D541F002014FF464
:103430000072C2618269920744BF0022826282697F
:10344000D20703D1826942F00102826142684EF6DE
:103450000003CFF600631A404260606C084360646A
:10346000202084F84100002084F8420084F84000C5
:10347000012070BD2DE9F0410446006880690840D4
:10348000401AB0FA80F04009904271D1DDF81880FE
:1034900015460E461F46581C30D0002F42D100BFA3
:1034A000204600214246FFF735FF00281CBF0120BF
:1034B000BDE8F081FDF762FA206881693140891B1F
:1034C000B1FA81F14909A94242D080693040801B9C
:1034D000B0FA80F04009A8421CBF0020BDE8F0818E
:1034E000DEE700BF206880693040801BB0FA80F0C2
:1034F0004009A8421CBF0020BDE8F08120464FF0E3
:10350000FF314246FFF706FF0028EBD00120BDE85F
:10351000F08100BF80693040801BB0FA80F0400924
:10352000A84225D1204639464246FFF7F3FE00283F
:10353000ECD1FDF723FAA0EB08012068B942E9D9E4
:1035400081693140891BB1FA81F14909A942E1D170
:10355000606C40F020006064202084F8410000206E
:1035600084F8420084F840000120BDE8F08100BFEB
:103570000020BDE8F081000070B504460068806955
:10358000800637D415460E4619B92AE080698006B0
:1035900030D4204631462A46FFF7BCFE40BBFDF73B
:1035A000EDF9411B2068B142F0D981698906EDD45B
:1035B000606C40F020006064202084F8410000200E
:1035C00084F8420084F84000012070BDFDF7D6F970
:1035D000206881698906EBD58069800644BF002098
:1035E00070BD204600212A46FFF794FE0028EDD04A
:1035F000012070BD002070BD70B504460068806970
:1036000080074DD415460E46481C1DD04EBB00BF4A
:10361000204600212A46FFF77DFE00281CBF01201E
:1036200070BDFDF7ABF920688169890729D58069EC
:10363000800744BF002070BDEAE700BF20688069B2
:10364000800744BF002070BD20464FF0FF312A465E
:10365000FFF760FE0028F1D0012070BD806980076F
:103660001ED4204631462A46FFF754FE0028F3D1E7
:10367000FDF784F9411B2068B142EFD981698907C0
:10368000ECD4606C40F020006064202084F841009D
:10369000002084F8420084F84000012070BD00BF83
:1036A000002070BD2DE9F04387B0002740F68C4024
:1036B0000697C4F20240016840F2004941F001015E
:1036C00001600168C4F2022901F001010191019930
:1036D0000168A9F5806541F002010160006842219E
:1036E00000F0020001900198284600224226FDF7D2
:1036F0003FF94846042100224FF00408FDF738F94D
:10370000029602AE012428463146CDE903470597CB
:10371000FDF766F80020C1F21100CDE90307484625
:1037200031460294FDF75CF848463146CDE9028403
:10373000CDE90477FDF754F80B2000210022FDF7B6
:10374000FBFC0B20FDF7E8FC07B0BDE8F0830000B0
:1037500080B540F2380045F2004244F2E533C2F24F
:1037600000000021C4F200024FF0010CC1F2C003BE
:10377000C0E90023C0E9021CC0E90411C0E9061138
:103780000162FDF74BF9002818BFFCF7EDFF40F28E
:103790003800C2F200000021FDF7F6F8002818BF3B
:1037A000FCF7E2FF40F23800C2F200000021FDF712
:1037B00011F9002808BF80BDBDE88040FCF7D4BFE8
:1037C00080B50020FDF702FC002818BFFCF7CCFFF5
:1037D000FDF70CFC002808BF80BDBDE88040FCF769
:1037E000C3BF000080B540F28C0043F6000248F2EF
:1037F0008043C2F200000021C4F201024FF00C0C21
:10380000C0F21E03C0E90023C0E90211C0E9041C94
:10381000C0E90611C0E908118162FFF731FC0028F8
:1038200018BFFCF7A1FF40F28C00C2F2000000219B
:10383000FFF7E0FB002818BFFCF796FF40F28C0072
:10384000C2F200000021FFF78FFB002818BFFCF731
:103850008BFF40F28C00C2F20000FFF769FB0028EA
:1038600008BF80BDBDE88040FCF77EBFFEE70000DA
:10387000FEE700007047000070B540F62C46C4F229
:10388000024656F82C1C044621F0806046F82C0CA9
:10389000FDF774F8054600BF56F82C0C000107D55B
:1038A000FDF76CF8401B022884BF032070BDF3E7CE
:1038B000306843F60371884394E80E00084340EAF9
:1038C0000220E16830604FF47E4202EB4121226920
:1038D000581E4FF4FE0389B203EB02426FF35F20E0
:1038E000084402F4FE0162694FF0FE4303EB0262FA
:1038F000084402F0FE41084430613068A16920F0BC
:103900000C00084330603068E16920F02000084373
:103910003060606A31680843306030684FF6F87193
:1039200020F0100030607069226A884340EAC200CB
:103930007061306840F01000306056F82C0C40F098
:10394000806046F82C0CFDF719F8044656F82C0C4C
:10395000000144BF002070BDFDF710F8001B0328D4
:1039600024BF032070BDF1E770470000FDF748BB9E
:1039700010B59CB008A840F6140404302421C4F209
:103980000244FCF7BFFC0020CDE90600CDE90400AD
:10399000CDE9020054F8040C40F0300044F8040C67
:1039A00054F8040C00F030000190019820680007E2
:1039B00009D4206800075CBF20685FEA007002D469
:1039C00020680007F2D5102008904FF480700F9007
:1039D000202001211090022014917D21CDE91200B8
:1039E000CDE91510CDE9170008201990002408A88A
:1039F000CDE91A44FEF704FF10B172B6FEE700BF2E
:103A00001F2002900320CDE9030402A80521CDE97F
:103A100005440794FEF7A2FC10B172B6FEE700BFA2
:103A200042F20000C4F202000168022262F30511B2
:103A300001601CB010BD00004EF6885CCEF2000C98
:103A4000DCF80000012240F47000CCF8000040F6E1
:103A50000040C4F2024002600022C26102620368B8
:103A60004EF6E321CFF6E2211940016040F28021B9
:103A7000C0F201118262C26241638263C163026467
:103A8000016821F48021016002654FF0006142F27B
:103A90001C00C4F202004CF8801C50F8041C4A0FB1
:103AA000062A05D801F06041B1F1404F18BF7047B8
:103AB0000168C9070BD042F63B21C0F6190140F856
:103AC000101C46F67F61C4F65D4140F8101C016889
:103AD00041F002010160016841F00101016070479D
:103AE00080B5816A0A070DD4CA0716D18A071FD488
:103AF0004A0728D4CA0631D48A063AD44A0658D589
:103B000042E000BF0268D0F838C0536823F4004395
:103B100043EA0C035360CA07E8D00268D0F82CC00F
:103B2000536823F4003343EA0C0353608A07DFD55C
:103B30000268D0F830C0536823F4803343EA0C03A2
:103B400053604A07D6D50268D0F834C0536823F4CE
:103B5000802343EA0C035360CA06CDD50268D0F82F
:103B60003CC0936823F4805343EA0C0393608A06B5
:103B7000C4D50268D0F840C0936823F4005343EAE8
:103B80000C0393604A0614D50268D0F844C0536809
:103B9000BCF5801F23F4801343EA0C03536008D163
:103BA000D2F804C0D0F848E02CF4C00343EA0E0376
:103BB0005360090658BF80BD0168C06C4A6822F492
:103BC00000221043486080BDB0B582B0044600209A
:103BD000C4F89000FCF7D2FE216805460A68120777
:103BE00037D56FF07E4C20464FF4001100222B4653
:103BF000CDF800C000F078F950B300BF206850E85D
:103C0000000F216820F0800041E80002DAB120684E
:103C100050E8000F216820F0800041E8000292B1D6
:103C2000206850E8000F216820F0800041E8000281
:103C30004AB1206850E8000F216820F0800041E878
:103C40000002002ADAD12020C4F8880060E000BF1A
:103C500021680868400761D56FF07E4C20464FF41C
:103C6000800100222B46CDF800C000F03DF900286D
:103C700054D000BF206850E8000F216820F49070F5
:103C800041E80002E2B1206850E8000F216820F40A
:103C9000907041E800029AB1206850E8000F216856
:103CA00020F4907041E8000252B1206850E8000F03
:103CB000216820F4907041E80002002ADAD100BFA8
:103CC000206850E8020F216820F0010041E802025C
:103CD000DAB1206850E8020F216820F0010041E8C5
:103CE000020292B1206850E8020F216820F0010022
:103CF00041E802024AB1206850E8020F216820F032
:103D0000010041E80202002ADAD12020C4F88C0028
:103D10000320002184F8841002B0B0BD2020C4F834
:103D20008800C4F88C000020E0662067002184F839
:103D3000841002B0B0BD000070B504460168806810
:103D400004F10C052CCD18432843E6690B6846F6B0
:103D5000F315CCF6FF7530432B40184308604868D4
:103D60004FF2FF4520F440501043486042F20042B9
:103D7000A069C4F2004291421CBF236A18438B68B9
:103D8000C1F2FF152B4018438860C86A636A20F0AF
:103D90000F00184343F2FF73C4F201039942C86253
:103DA00010DC44F20040C4F20000814218D044F616
:103DB0000000C4F20000814256D10420914216D185
:103DC00055E000BF43F60000C4F2010081420BD071
:103DD000914249D14FF48050914208D147E000BF51
:103DE0000220914203D142E0012091423FD00021C4
:103DF000FDF792FBB6F5004F1ED1002864D0616A32
:103E000046F20A42C0F6000232F811106268B0FBB6
:103E1000F1F0510801EB4000B0FBF2F04FF6EF7209
:103E2000A0F11001914253D84FF6F071C0F3420255
:103E30000840104443E000BF002847D0616A46F2C2
:103E40000A42C0F6000232F811106268B0FBF1F0CD
:103E500000EB5200B0FBF2F04FF6EF72A0F1100150
:103E600091422CD9012536E000209142BFD100219A
:103E70000025FDF751FB70B3616A46F20A42C0F6B5
:103E8000000232F811106268B0FBF1F002EB42015F
:103E9000012588421FD3110388421CD8010E00025D
:103EA00010EB520041F100010023FCF7F3F94FF64B
:103EB0000052A0F54071C0F20F0291420AD221686F
:103EC0000025C86007E000BF002504E0002502E0EF
:103ED000012500E001254FF00110A06600212846D1
:103EE0006167A16770BD00002DE9F0418046006860
:103EF0001546C2690E461140891BB1FA81F1490984
:103F0000A94240F08380069C34B3611C2AD100BFD3
:103F1000C1693140891BB1FA81F14909A94275D1C2
:103F2000C1693140891BB1FA81F14909A9426DD1BA
:103F3000C1693140891BB1FA81F14909A94265D1B2
:103F4000C1693140891BB1FA81F14909A9421CBFFD
:103F50000020BDE8F081DBE7FCF710FD0320BDE8A1
:103F6000F08100BF1F4607E0C0693040801BB0FAF7
:103F700080F04009A84249D1FCF700FDC01BA042D7
:103F800084BF0320BDE8F081D8F80000016849072C
:103F9000EAD5402E18BF802EE6D0C169090739D472
:103FA000C1690905E0D54FF40061016250E8000FD6
:103FB000D8F8001020F4907041E80002002A5FD089
:103FC000D8F8000050E8000FD8F8001020F49070E6
:103FD00041E80002002A53D0D8F8000050E8000F52
:103FE000D8F8001020F4907041E80002002A47D071
:103FF000D8F8000050E8000FD8F8001020F49070B6
:1040000041E80002E2B3D8F80000CFE70020BDE8A5
:10401000F08100BF0821016250E8000FD8F80010BD
:1040200020F4907041E80002002A00F09780D8F850
:10403000000050E8000FD8F8001020F4907041E81C
:104040000002002A00F08A80D8F8000050E8000F33
:10405000D8F8001020F4907041E80002002A7DD0CA
:10406000D8F8000050E8000FD8F8001020F4907045
:1040700041E80002002A71D0D8F80000CCE700BF68
:104080004FF6FE70CEF6FF70D8F8001051E8021F10
:10409000D8F80020014042E80213F3B1D8F800102C
:1040A00051E8021FD8F80020014042E80213A3B1F2
:1040B000D8F8001051E8021FD8F80020014042E86B
:1040C000021353B1D8F8001051E8021FD8F80020AD
:1040D000014042E80213002BD6D1D8F86C00012829
:1040E0002CD1D8F8000050E8000FD8F8001020F0CC
:1040F000100041E800020AB3D8F8000050E8000FB1
:10410000D8F8001020F0100041E80002B2B1D8F851
:10411000000050E8000FD8F8001020F0100041E82F
:1041200000025AB1D8F8000050E8000FD8F800108B
:1041300020F0100041E80002002AD2D12020002106
:10414000C8F88C00C8F86C10C8F87410C8F8900053
:10415000032088F88410BDE8F08100BF4FF6FE70A0
:10416000CEF6FF70D8F8001051E8021FD8F80020F2
:10417000014042E80213F3B1D8F8001051E8021FE1
:10418000D8F80020014042E80213A3B1D8F800108B
:1041900051E8021FD8F80020014042E8021353B151
:1041A000D8F8001051E8021FD8F80020014042E87A
:1041B0000213002BD6D1D8F86C0001282CD1D8F8E6
:1041C000000050E8000FD8F8001020F0100041E87F
:1041D00000020AB3D8F8000050E8000FD8F8001029
:1041E00020F0100041E80002B2B1D8F8000050E819
:1041F000000FD8F8001020F0100041E800025AB17A
:10420000D8F8000050E8000FD8F8001020F0100097
:1042100041E80002002AD2D12020C8F88C000020FA
:104220000821C8F86C00C8F87400C8F8901088F825
:1042300084000120BDE8F081FEE7000080B582B077
:10424000019040F28C00C2F2000001A901224FF659
:10425000FF73FEF78DFF019802B080BD10B582B0EC
:104260000C460DF102022821062300F041FD08B1A1
:1042700002B010BDBDF80210019A2180C4F80220DE
:1042800002B010BD2DE9F04784B00C460DF10E02CE
:1042900050210123054600F02BFD18B104B0BDE804
:1042A000F08700BF9DF80E000DF10E0240F00800EF
:1042B0008DF80E0028465021012301F0F7F8002860
:1042C000ECD101AA28461B21042300F011FD00288F
:1042D000E4D19DF80500E2799DF8061002F00F0286
:1042E00000F0F0001044E071C1F3C000667801F006
:1042F000020261F3410040EA4200A37806F0F802AE
:1043000010449DF807C094F800E0607001F01000C0
:1043100003F0EF010844A0700EF040000CF0BF0164
:10432000084420700DF10E0228465021012300F0B0
:10433000DFFC0028B2D19DF80E000DF10E0200F056
:10434000F7008DF80E0028465021012301F0AEF849
:104350000028A3D101AA2846442108234FF00808C9
:1043600000F0C6FC002899D19DF80460217806F081
:10437000040601F0BF019DF8057041EA0611E678D8
:10438000217008EAD70106F0C0069DF806006278A1
:10439000314407F0100601EB0608402102F0070245
:1043A00001EA400167F3C50200F00F0700F01000BA
:1043B00041EAC0009DF8073094F802A0104406229C
:1043C0000AF0100602EAD302B91903F004069DF8B8
:1043D0000990607002EB0800C3F3C00241EA461185
:1043E000104463F3461109F0080240EA8200A1700C
:1043F000202118229DF80AE001EA990102EA5902F7
:104400000EF00103114441EA8311E07020790EF0AF
:10441000020241EA821100F007009DF80BC0084437
:1044200020714FEA9E00A2790CF002016CF3861015
:1044300040EA811002F0C00141EA9C016071A17163
:104440002846012100F0CAFB06460DF10F0228465E
:104450000721012300F04CFC06440DF10D02284613
:104460006421012300F044FC06442846002100F0AA
:10447000B5FB80197FF412AF9DF80F00227900F090
:10448000010302F0F802E17842EA43029DF80D30A0
:1044900000F0020042EA400003F0040201F01F01B4
:1044A00041EA0211C3F3001703F0080241EA0211C6
:1044B0003844207103F020000844E07003AA284625
:1044C0004821012300F014FC00287FF4E7AE9DF89A
:1044D0000C00A179E27901F03F0100F0010341EA0B
:1044E000831102F0F00242EA101200F0080041EAE3
:1044F0000010E271A071002004B0BDE8F087000058
:10450000B0B582B00D460DF1070212210123044619
:1045100000F0EEFB10B102B0B0BD00BF9DF8070087
:1045200005F0010100F0BF0040EA81100DF1070223
:104530008DF8070020461221012300F0B7FF02B0DA
:10454000B0BD00000A460F21012300F0D1BB0000DE
:10455000B0B582B00D460DF10702152101230446C6
:1045600000F0C6FB10B102B0B0BD00BF9DF807005F
:1045700005F0070100F08F0040EA01100DF107027D
:104580008DF8070020461521012300F08FFF02B0AF
:10459000B0BD0000B0B582B00D460DF10702162186
:1045A0000123044600F0A4FB10B102B0B0BD00BF6F
:1045B0009DF8070005F0010100F0FE0008448DF8A9
:1045C00007000DF1070220461621012300F06EFFBF
:1045D00002B0B0BDB0B582B00D460DF10502132199
:1045E0000123044600F084FB10B102B0B0BD00BF4F
:1045F0009DF8050005F0010100F0F70040EAC10058
:104600000DF105028DF8050020461321012300F06D
:104610004DFF0028E9D10DF1070220466321012357
:1046200000F066FB0028E0D1E80005F0040200F08D
:10463000400040EA82009DF8071005F0100240EAB1
:10464000420001F08F0108448DF807000DF10702C8
:1046500020466321012300F029FF0028C5D10DF178
:10466000060220466F21012300F042FB0028BCD146
:104670009DF8060005F0020100F0BF0040EA41107D
:104680000DF106028DF8060020466F21012300F08F
:104690000DFF02B0B0BD0000B0B582B00D460DF107
:1046A000070217210123044600F022FB10B102B0DB
:1046B000B0BD00BF9DF807000DF1070200F01F001C
:1046C00040EA451017218DF807002046012300F02D
:1046D000EDFE02B0B0BD0000B0B582B00D460DF1E8
:1046E000070218210123044600F002FB10B102B0BA
:1046F000B0BD00BF9DF8070005F0010100F0F70014
:1047000040EAC1000DF107028DF80700204618218C
:10471000012300F0CBFE02B0B0BD000010B582B0A6
:104720000C460DF107021E21012300F0E1FA08B149
:1047300002B010BD9DF807102278C1F3C00302F04B
:10474000F0021A4401F0010342EA430201F00203BD
:1047500042EA430201F0040142EA4101217002B041
:1047600010BD0000F0B581B00D460DF1010215211C
:104770000123044600F0BCFA06460DF10302204670
:104780001121012300F0B4FA9DF8031036188DF8BA
:10479000021003D0304601B0F0BD00BF11F00F078A
:1047A0000CD001F0F0008DF803000DF1030220465B
:1047B0001121012300F07AFE064600E000269DF854
:1047C000010005F0070100F0F80008448DF8010031
:1047D0000DF1010220461521012300F067FE002F94
:1047E0000644D7D00DF1020220461121012300F02A
:1047F0005DFE0644304601B0F0BD0000F0B583B068
:1048000015460E460907044601D5052D12D0032D85
:1048100008D1022E4FF0FF3018BF0C2E02D103B08A
:10482000F0BD00BF102E01D3012D03D10F2E05D8EE
:10483000012D03D14FF0FF3003B0F0BD02AA204696
:104840001021022300F054FA07460DF10A02204617
:104850006221012300F04CFAC019E0D19DF808C094
:104860009DF80AE09DF8097030091CF00F010EF068
:10487000030318BF17F00F0234D1834210D0C7F3DF
:104880000213AB420CD0012D18BF012B08D1CCF381
:10489000021220463346009500F028F803B0F0BD20
:1048A00006F00F0207F0800165F3061211448DF83F
:1048B0000B1000F003000EF0FC0108448DF80A0014
:1048C0000DF10B0220461121012300F0EFFD0546FA
:1048D0000DF10A0220466221012300F0E7FD284481
:1048E00003B0F0BD9842A5D1C7E700002DE9F04F15
:1048F00085B004468068002800F0EE801D46904692
:104900000E464FEA111A4FEA131B21B1002D18BFB2
:10491000DA4540F0E1800DF11102204662210123C9
:1049200000F0E6F907460DF113022046102101239D
:1049300000F0DEF907440DF1120220461121012397
:1049400000F0D6F9074404AA20464E21012300F0C6
:10495000CFF907440DF10F0220466B21012300F02F
:10496000C7F93F189DF813009DF810909DF80F208F
:104970008DF80E908DF80D2040F0AA809DF8121051
:10498000009000F0F0008DF8130001F0F0008DF8B9
:10499000120009F047008DF8100002F03F0002926B
:1049A0008DF80F000DF1130220461021012300F0B5
:1049B0007DFD07460DF1120220461121012300F072
:1049C00075FD19F038010744019106D004AA20466C
:1049D0004E21012300F06AFD07440298DDF838906B
:1049E000402807D30DF10F0220466B21012300F070
:1049F0005DFD07449DF811104BEA0A0000F003002A
:104A000001F0FC0108448DF811009DF8130008F036
:104A1000070100F08F0040EA01109DF8121009F024
:104A2000070201F08F0141EA02118DF813008DF8A1
:104A300012100DF1110220466221012300F036FD13
:104A400007440DF1130220461021012300F02EFD32
:104A500007440DF1120220461121012300F026FD2A
:104A60000099074401F07001102902D1A1680120CA
:104A700088479DF8130006F00F0100F0F00008448D
:104A80008DF813009DF8120005F00F0100F0F00002
:104A900008448DF812000DF1130220461021012365
:104AA00000F004FD3D180DF11202204611210123F2
:104AB00000F0FCFC01992F1839B10DF10E022046CF
:104AC0004E21012300F0F2FC07440298402809D24D
:104AD000384605B0BDE8F08F4FF0FF37384605B0D7
:104AE000BDE8F08F0DF10D0220466B21012300F08F
:104AF000DDFC0744384605B0BDE8F08FF0B581B065
:104B000015460E460DF1030210210123044600F064
:104B1000EFF807460DF1020220461121012300F0B3
:104B2000E7F807440DF1010220464E21012300F071
:104B3000DFF8C01902D001B0F0BD00BF9DF803003E
:104B4000002E00F00F0118BF00291FD119B100F08D
:104B5000700030281DD09DF80200010703D000F03E
:104B60007000302815D09DF801000DF1010200F011
:104B7000470066F3C50040EAC5104E218DF80100DC
:104B80002046012300F092FC01B0F0BD10F060025D
:104B9000DCD04FF0FF3001B0F0BD0000B0B582B006
:104BA0000D460DF107024E210123044600F0A0F846
:104BB00010B102B0B0BD00BF9DF8070005F00701BD
:104BC00000F0F80008448DF807000DF107022046B8
:104BD0004E21012300F06AFC02B0B0BDB0B582B036
:104BE0000D460DF1070201210123044600F080F873
:104BF00010B102B0B0BD00BF9DF8070005F0020182
:104C000000F03F0040EA41100DF1070240EAC510F4
:104C100001218DF807002046012300F047FC02B077
:104C2000B0BD0000B0B582B00D460DF107020D21F8
:104C30000123044600F05CF810B102B0B0BD00BF23
:104C40009DF80700297800F0840001F0030301F0CB
:104C50000402184440EA420001F0080240EA42001F
:104C600001F0100240EA420001F0200140EA410058
:104C70000DF107028DF8070020460D21012300F0F9
:104C800015FC0028D9D10DF1060220465E21012332
:104C900000F02EF80028D0D128789DF806200423B3
:104CA00003EA5013C0F38010697802F00202104446
:104CB000184401F0010240EA821001F0020240EAC9
:104CC000820001F0040240EAC20001F0080240EA5A
:104CD000420001F0100140EAC1000DF106028DF81A
:104CE000060020465E21012300F0E0FB02B0B0BDCB
:104CF000002804BF4FF0FF30704780B5D0F80CC0DB
:104D0000D0F804E06046F446BDE88040604700000B
:104D100070B582B00C460DF1060201210123054653
:104D2000FFF7E6FF064670B99DF80600022161F321
:104D30009F108DF806000DF106022846012101237F
:104D400000F0B4FB06460DF1050228465E21012362
:104D5000FFF7CEFF06440DF107022846012101238B
:104D6000FFF7C6FF20B1801911D002B070BD00BF9F
:104D70009DF807000DF1070200F03F008DF80700D5
:104D800028460121012300F091FB8019EDD19DF807
:104D90000510C1F3C2014A1E052A28BF0021217057
:104DA00002B070BD70B582B00E460DF10602012151
:104DB00001230446FFF79CFF10B1054619E000BF30
:104DC0009DF80600022161F39F108DF806000DF199
:104DD000060220460121012300F068FB054640B988
:104DE0000DF1050220465E210123FFF781FF0546F4
:104DF000D0B10DF10702204601210123FFF778FF12
:104E000010B1284402B070BD9DF807000DF10702F3
:104E100000F03F008DF8070020460121012300F03B
:104E200045FB284402B070BD9DF8050006F007015F
:104E300000F0C70040EAC1000DF105028DF8050041
:104E400020465E21012300F031FBB6E770B584B047
:104E50000D460DF10D010446FFF75AFF10B104B0E5
:104E600070BD00BF9DF80D000138C0B2042805D800
:104E700092A101EB800090ED000A01E09FED8E0A07
:104E800095ED002A9FED921A4FF4004022EE012A80
:104E90004FF6FF7282EE002A40F2010C4FF6FF7EC1
:104EA000C4F27F72C3F6000CC0F27F0E12EE103A0D
:104EB00000EA134103F0FF40B0F18F4F12D3B0F17D
:104EC000FF4F23D113EA0E0020D0430B03F5F84324
:104ED00047F60146B3F5F84F08BF06EB50331944C7
:104EE00022E000BF604515D2B0F14C5F1CD37126A3
:104EF00003EA0E03A6EBD05003F5000323FA00F0FB
:104F000000F5805001EB50310EE000BF41F4F84154
:104F10000AE000BF00F1006003EA0E03400B03F556
:104F2000805300EB5330014495ED012A4FF40043C8
:104F300022EE012AADF8061082EE002A12EE100AC7
:104F400003EA104300F0FF46964211D9B6F1FF4F35
:104F500020D110EA0E001DD0410B01F5F84147F6B3
:104F60000146B1F5F84F08BF06EB50310B441FE086
:104F7000664513D2B6F14C5F1AD3712100EA0E00D8
:104F8000A1EBD65100F50000C84000F5805003EBBE
:104F900050330DE043F4F8430AE000BF06F100612E
:104FA00000EA0E00490B00F5805001EB503003443D
:104FB00095ED022A4FF4004122EE011AADF80830B7
:104FC00081EE000A10EE100A00F0FF4501EA1041E0
:104FD000954211D9B5F1FF4F20D110EA0E001DD036
:104FE000420B02F5F84247F60143B2F5F84F08BF0D
:104FF00003EB503211441FE0654513D2B5F14C5F0D
:105000001AD3712200EA0E00A2EBD55200F500007F
:10501000D04000F5805001EB50310DE041F4F841F3
:105020000AE000BF05F1006200EA0E00520B00F535
:10503000805002EB50300144ADF80A100DF10E0221
:10504000204601210123FFF753FE08B105460FE07A
:105050009DF80E00022161F39F108DF80E000DF1F6
:105060000E0220460121012300F020FA0546D8B1A6
:105070000DF10F02204601210123FFF739FE18B17F
:10508000284404B070BD00BF9DF80F000DF10F0261
:1050900000F03F008DF80F0020460121012300F0B1
:1050A00005FA284404B070BD0DF1060220463221F5
:1050B000062300F0FBF9C9E70AD7233D0AD7A33C32
:1050C0000AD7233C0AD7A33B0AD7233B0AD7A33AE4
:1050D00035FA8E3C70B582B00E460DF10602012104
:1050E00001230446FFF704FE10B1054619E000BF96
:1050F0009DF80600022161F39F108DF806000DF166
:10510000060220460121012300F0D0F9054640B9EE
:105110000DF10502204604210123FFF7E9FD0546B4
:10512000D0B10DF10702204601210123FFF7E0FD78
:1051300010B1284402B070BD9DF807000DF10702C0
:1051400000F03F008DF8070020460121012300F008
:10515000ADF9284402B070BD9DF8050006F00101CC
:1051600000F0FD0040EA41000DF105028DF8050058
:1051700020460421012300F099F9B6E770B582B00A
:105180000E46694600F02EF910B102B070BD00BFA6
:10519000BDF900204EF2000C91B202F4F843B3F5D1
:1051A000F84FC0F6FF7C02F0004417D0E3B96FF36C
:1051B0009F21B9B34D006A051A461BD48B005D05CB
:1051C0001AD4CB005D051BD409014B0502F1040381
:1051D000F0D589B242F0030215E000BF44EA413144
:1051E00041F0FF441EE000BF0CEA413101F1605183
:1051F0000C4317E0A9B206E099B242F0010202E0C6
:1052000099B242F0020292B24CF20003A2EB4202C7
:10521000C0F27F0303EA413144F0605303EBC25212
:1052200042EA0104BDF802104FF0004201F4F843D5
:1052300002EA0145B3F5F84F346017D0E3B96FF3D4
:105240009F21B9B34A0054051C461BD48A0053055C
:105250001AD4CA0053051BD409014A0504F10403FA
:10526000F0D589B244F0030415E000BF45EA4131AE
:1052700041F0FF451EE000BF0CEA413101F16051F1
:105280000D4317E091B206E091B244F0010402E050
:1052900091B244F00204A2B24CF20003A2EB42022B
:1052A000C0F27F0303EA413145F0605303EBC25281
:1052B00042EA0105BDF804104FF0004301F4F84242
:1052C00003EA0143B2F5F84F756017D0E2B96FF306
:1052D0009F21B9B34D006C0514461BD48A005505B7
:1052E0001AD4CA0055051BD409014A0504F1040269
:1052F000F0D589B244F0030415E000BF43EA413120
:1053000041F0FF431EE000BF0CEA413101F1605162
:105310000B4317E0A9B206E091B244F0010402E0A9
:1053200091B244F00204A2B24CF20005A2EB420298
:10533000C0F27F0543F0605305EA413103EBC252EE
:1053400042EA0103BDF806404FF0004204F4F84180
:1053500002EA0442B1F5F84FB36017D0F1B96FF328
:105360009F24BCB163005D050D461FD4A1004B0511
:105370001ED4E1004B051FD42401610505F1040191
:10538000F0D5A3B245F0030519E000BF42EA44316D
:1053900041F0FF42F26002B070BD00BF0CEA443140
:1053A00001F160510A43F26002B070BD9BB206E0A9
:1053B0008BB245F0010502E08BB245F00205A9B2BF
:1053C0004CF20005A1EB4101C0F27F0542F06052B2
:1053D00005EA433302EBC15141EA0302F26002B035
:1053E00070BD000070B584B00C460DF10E020121B5
:1053F00001230546FFF77CFC064670B99DF80E00B8
:10540000022161F39F108DF80E000DF10E02284667
:105410000121012300F04AF806460DF10602284654
:105420002A210823FFF764FC06440DF10F022846E9
:1054300001210123FFF75CFC20B1801911D004B0D9
:1054400070BD00BF9DF80F000DF10F0200F03F008E
:105450008DF80F0028460121012300F027F880195C
:10546000EDD1DDF80610DDF80A202160626004B09D
:1054700070BD000010B582B00446806860B10420A1
:105480008DF807000DF1070220460121012300F0ED
:105490000DF828B102B010BD4FF0FF3002B010BDC2
:1054A000A1681E208847002002B010BD002804BF5C
:1054B0004FF0FF30704780B5D0F80CC0D0F800E056
:1054C0006046F446BDE8804060470000B0B582B059
:1054D0000D460DF10702172101230446FFF708FCD2
:1054E00010B102B0B0BD00BF9DF8070005F0030188
:1054F00000F0FC0008448DF807000DF1070220467B
:1055000017210123FFF7D2FF02B0B0BDF0B583B081
:1055100015460E460129044603D1281FC0B20228B1
:1055200038D8022E1AD1002D18BF072D32D10F2ED8
:1055300001D8012D2ED002AA204610210223FFF708
:10554000D7FB07460DF10A02204662210123FFF72F
:10555000CFFBC01922D003B0F0BD00BF30070DD57E
:1055600015F004000AD0A6F10B00C0B202284FF0DB
:10557000FF30F0D3072D09D0EDE700BF032D05D193
:10558000012E4FF0FF3018BF0C2EE4D0102ECED3DA
:10559000012DCCD04FF0FF3003B0F0BD9DF8087066
:1055A0009DF809C09DF80A103A074FEA16100CF052
:1055B0000F0318BF002B01F0030235D1824211D036
:1055C000C7F30212AA420DD0012D18BF012A09D13A
:1055D000CCF30217204631462A460097FFF786F99A
:1055E00003B0F0BD06F00F0307F0800265F3061369
:1055F00000F0030001F0FC011A4408448DF80B2070
:105600008DF80A000DF10B02204610210123FFF74F
:105610004DFF05460DF10A02204662210123FFF7E6
:1056200045FF284403B0F0BD9042B3D1C6E7000067
:1056300090B0FBF7F3FCFEF79BF9FEF733F8FEF7AB
:1056400087F8FEF7BDF8FEF7CDF8F3A000F0A0FE56
:105650000024C4F2022404F5806004210122012503
:10566000FBF786F92046022100224FF00008FBF7E5
:105670007FF9204640210122FBF77AF96420FBF7ED
:1056800077F840F2180AC2F2000A45F69120C0F6F7
:105690000000544644F80C0F45F66D20C0F600009B
:1056A00045F66921606040F23800C0F60001C2F2A0
:1056B0000000C4E902100A20FBF75AF8A4F10B011C
:1056C0002046FEF73FFF14F80B1CD5A0732200F014
:1056D000F1F914F80B0C732840F08E810AF10C09D3
:1056E0004846FFF7C7FE48460121FEF709FF484636
:1056F00006210022FFF70AFF484606210022FFF795
:105700007DF8484603210122FFF7F8F948460621B3
:105710000022FFF773F848460021FFF7D7FE4846FE
:105720000421FFF73BFA48460421FFF71BF89AF8DB
:10573000020040F0150148468AF80210FEF74AFFC1
:1057400048460121FEF726FF48460021FEF700FFEC
:1057500048460121FEF7C0FF48460421FEF79CFFA2
:1057600048460321FFF71EFB48460121FFF7B2FC24
:105770000DA94846CDF83C80CDE90D88FFF766FBC2
:105780000DF132014846ADF83250FFF74BFA4FF6B3
:10579000AB50B7EE00AAC0F2FE309FED9BBB9FED71
:1057A0009CCB9FEDAFDA9FEDAFEACDF82200082049
:1057B0008DF8285008AC0AF1040506AE8DF831804A
:1057C000CDF82D80CDF82980ADF82600019593E025
:1057D0001AEE900A19EE10BAB1EE488AFAF7B6FE40
:1057E00057EC1C8B3B464246FAF73EFEFAF7C1FEE9
:1057F00009EE100A18EE100AFAF7A8FE42463B46D8
:10580000FAF732FEFAF7B5FE08EE100A8BF0004008
:10581000FAF79CFE42463B46FAF726FEFAF7A9FE47
:1058200000EE100A29EE0D1A20EE0D0A31EE0E1AC6
:10583000BDEEC00A9DF8234010EE100A28EE0D0AB6
:105840001FFA80FCBDEEC00A4FEA1C2610EE103A8B
:10585000BDEEC10A9DB210EE101A8DF829601FFA34
:1058600081FE2E0A8DF82B604FEA1E268DF82D60E2
:105870009DF822609DF8242034449DF8257026442C
:10588000224494199DF826603A44144432449DF809
:105890002760144432449DF828601444324402EBDB
:1058A0001C278DF82A00224438443A4400EB15277F
:1058B0001044FA188DF82C30384402EB1E231044A3
:1058C0008DF82E101844194400EB41004FF00008E9
:1058D0008DF8310040F28C008DF83010C2F20000DB
:1058E0000DF1220110224FF6FF738DF82F80FDF786
:1058F0003FFC019D08AC06AE9AF800000028FBD0E2
:10590000504600F80C8B2146FEF708FF9DF820005A
:105910008007F1D548462946FEF7A0FC48463146A7
:10592000FEF7B0FC9DF81C008007E5D5484602A9AB
:10593000FFF724FC9DED028ADDED038AB5EE408A77
:105940009DED04FADDED059AF1EE10FAB9BFF1EE26
:10595000699AB1EE488AB1EE4FFAF1EE688A6FEEBD
:105960000FAA29EEA90A2FEE281A29EE882A30EE6E
:105970002A0A32EE011A30EE002A31EE010A7AEEDE
:10598000420A68EEA8DA00F04FF9B0EE409A28EE2D
:10599000280A2FEE291A3AEEAD2A31EE000A32EE2D
:1059A000021A30EE000A7AEE410AF1EE49AA00F03E
:1059B0003BF928EEA91A2FEE082AB0EE408A32EE03
:1059C000411A31EE011AB0EE410A00F097F8B5EE37
:1059D000409AB0EE409AF1EE10FA7FF7F9AE1AEE67
:1059E000900AFAF7B3FD53EC1B2BFAF796FCFAF783
:1059F000C0FD0AEE900AEBE612A000F0C9FC00BF61
:105A0000FEE700BF00BF00BF4AD8124DFB2119407E
:105A1000CB67791EDCA54C4048454C4C4F2100001B
:105A200057484F5F414D5F493D307825303258200F
:105A30002865787065637420307825303258290DD8
:105A40000A0000004552524F523A2064657669635D
:105A500065206964206D69736D61746368210D0050
:105A60000000C84200A08CC6FAF782BE80B584B0A0
:105A70009C460B464FF47A7100920291D5211A464A
:105A80000123CDF804C0FBF71FF8002004B080BD4F
:105A900080B584B09C460B464FF47A710092029117
:105AA000D5211A460123CDF804C0FBF72DF90020BB
:105AB00004B080BD0FB4054B10B503A9044A029889
:105AC00000F034FA10BC5DF814FB00003D42000801
:105AD000000000204100080218BF04200A0E18BF71
